{
  "contractName": "SynLoanData",
  "abi": [
    {
      "constant": true,
      "inputs": [
        {
          "name": "",
          "type": "uint256"
        }
      ],
      "name": "users",
      "outputs": [
        {
          "name": "name",
          "type": "string"
        },
        {
          "name": "role",
          "type": "string"
        },
        {
          "name": "account",
          "type": "address"
        }
      ],
      "payable": false,
      "stateMutability": "view",
      "type": "function",
      "signature": "0x365b98b2"
    },
    {
      "constant": true,
      "inputs": [],
      "name": "loanId",
      "outputs": [
        {
          "name": "",
          "type": "uint256"
        }
      ],
      "payable": false,
      "stateMutability": "view",
      "type": "function",
      "signature": "0xc95669a5"
    },
    {
      "constant": true,
      "inputs": [
        {
          "name": "",
          "type": "uint256"
        }
      ],
      "name": "loans",
      "outputs": [
        {
          "name": "id",
          "type": "uint256"
        },
        {
          "name": "name",
          "type": "string"
        },
        {
          "name": "revisionNumber",
          "type": "uint256"
        },
        {
          "name": "registeringParty",
          "type": "address"
        },
        {
          "name": "dataString",
          "type": "string"
        },
        {
          "name": "regTime",
          "type": "uint256"
        },
        {
          "name": "numOfUsers",
          "type": "uint8"
        }
      ],
      "payable": false,
      "stateMutability": "view",
      "type": "function",
      "signature": "0xe1ec3c68"
    },
    {
      "constant": false,
      "inputs": [
        {
          "name": "_name",
          "type": "string"
        },
        {
          "name": "_dataString",
          "type": "string"
        }
      ],
      "name": "createLoan",
      "outputs": [],
      "payable": false,
      "stateMutability": "nonpayable",
      "type": "function",
      "signature": "0x0f7df727"
    },
    {
      "constant": true,
      "inputs": [
        {
          "name": "loanNum",
          "type": "uint256"
        }
      ],
      "name": "seeLoan",
      "outputs": [
        {
          "name": "id",
          "type": "uint256"
        },
        {
          "name": "name",
          "type": "string"
        },
        {
          "name": "purpose",
          "type": "string"
        }
      ],
      "payable": false,
      "stateMutability": "view",
      "type": "function",
      "signature": "0x5ec7616b"
    },
    {
      "constant": false,
      "inputs": [
        {
          "name": "_loanId",
          "type": "uint256"
        },
        {
          "name": "_name",
          "type": "string"
        },
        {
          "name": "_dataString",
          "type": "string"
        },
        {
          "name": "_loanAmount",
          "type": "uint256"
        }
      ],
      "name": "updateLoan",
      "outputs": [],
      "payable": false,
      "stateMutability": "nonpayable",
      "type": "function",
      "signature": "0x23351f81"
    },
    {
      "constant": false,
      "inputs": [
        {
          "name": "_id",
          "type": "uint256"
        }
      ],
      "name": "deleteLoan",
      "outputs": [],
      "payable": false,
      "stateMutability": "nonpayable",
      "type": "function",
      "signature": "0x2fb1df85"
    },
    {
      "constant": false,
      "inputs": [
        {
          "name": "_loanId",
          "type": "uint256"
        },
        {
          "name": "_revisionNumber",
          "type": "uint256"
        }
      ],
      "name": "approveLoan",
      "outputs": [],
      "payable": false,
      "stateMutability": "nonpayable",
      "type": "function",
      "signature": "0x7a646492"
    },
    {
      "constant": false,
      "inputs": [
        {
          "name": "_loanId",
          "type": "uint256"
        },
        {
          "name": "_account",
          "type": "address"
        }
      ],
      "name": "addUserToLoan",
      "outputs": [
        {
          "name": "",
          "type": "uint256"
        }
      ],
      "payable": false,
      "stateMutability": "nonpayable",
      "type": "function",
      "signature": "0xd37c2a7a"
    },
    {
      "constant": false,
      "inputs": [
        {
          "name": "_name",
          "type": "string"
        },
        {
          "name": "_role",
          "type": "string"
        }
      ],
      "name": "selfRegistration",
      "outputs": [],
      "payable": false,
      "stateMutability": "nonpayable",
      "type": "function",
      "signature": "0xa6166cb6"
    },
    {
      "constant": false,
      "inputs": [
        {
          "name": "_name",
          "type": "string"
        },
        {
          "name": "_role",
          "type": "string"
        },
        {
          "name": "_account",
          "type": "address"
        }
      ],
      "name": "userRegistration",
      "outputs": [],
      "payable": false,
      "stateMutability": "nonpayable",
      "type": "function",
      "signature": "0xae7f7cb7"
    },
    {
      "constant": false,
      "inputs": [
        {
          "name": "_name",
          "type": "string"
        },
        {
          "name": "_role",
          "type": "string"
        }
      ],
      "name": "editUserData",
      "outputs": [],
      "payable": false,
      "stateMutability": "nonpayable",
      "type": "function",
      "signature": "0x390948a2"
    },
    {
      "constant": true,
      "inputs": [
        {
          "name": "_addr",
          "type": "address"
        }
      ],
      "name": "getUserLoanCount",
      "outputs": [
        {
          "name": "",
          "type": "uint256"
        }
      ],
      "payable": false,
      "stateMutability": "view",
      "type": "function",
      "signature": "0xaa3b6867"
    },
    {
      "constant": true,
      "inputs": [
        {
          "name": "_loanId",
          "type": "uint256"
        }
      ],
      "name": "getloanToRegistrar",
      "outputs": [
        {
          "name": "",
          "type": "address"
        }
      ],
      "payable": false,
      "stateMutability": "view",
      "type": "function",
      "signature": "0xb91fc50a"
    },
    {
      "constant": true,
      "inputs": [
        {
          "name": "_loanId",
          "type": "uint256"
        },
        {
          "name": "_address",
          "type": "address"
        }
      ],
      "name": "getUserToId",
      "outputs": [
        {
          "name": "",
          "type": "uint256"
        }
      ],
      "payable": false,
      "stateMutability": "view",
      "type": "function",
      "signature": "0x28db29cb"
    },
    {
      "constant": true,
      "inputs": [
        {
          "name": "_account",
          "type": "address"
        }
      ],
      "name": "getUserDataByAddr",
      "outputs": [
        {
          "components": [
            {
              "name": "name",
              "type": "string"
            },
            {
              "name": "role",
              "type": "string"
            },
            {
              "name": "account",
              "type": "address"
            }
          ],
          "name": "",
          "type": "tuple"
        }
      ],
      "payable": false,
      "stateMutability": "view",
      "type": "function",
      "signature": "0x67922482"
    },
    {
      "constant": true,
      "inputs": [
        {
          "name": "_loanId",
          "type": "uint256"
        }
      ],
      "name": "getUsersInLoan",
      "outputs": [
        {
          "name": "",
          "type": "address[]"
        },
        {
          "name": "",
          "type": "uint256"
        }
      ],
      "payable": false,
      "stateMutability": "view",
      "type": "function",
      "signature": "0x792ad555"
    },
    {
      "constant": true,
      "inputs": [
        {
          "name": "_loanId",
          "type": "uint256"
        }
      ],
      "name": "getApprovalStatus",
      "outputs": [
        {
          "name": "",
          "type": "bool[]"
        }
      ],
      "payable": false,
      "stateMutability": "view",
      "type": "function",
      "signature": "0xcf16fd0b"
    },
    {
      "constant": true,
      "inputs": [
        {
          "name": "_loanId",
          "type": "uint256"
        }
      ],
      "name": "getLoanAmounts",
      "outputs": [
        {
          "name": "",
          "type": "uint256[]"
        }
      ],
      "payable": false,
      "stateMutability": "view",
      "type": "function",
      "signature": "0x0fc21317"
    },
    {
      "constant": true,
      "inputs": [],
      "name": "getArrLength",
      "outputs": [
        {
          "name": "",
          "type": "uint256"
        }
      ],
      "payable": false,
      "stateMutability": "view",
      "type": "function",
      "signature": "0x27e9b1a0"
    },
    {
      "constant": true,
      "inputs": [],
      "name": "getUserArrLength",
      "outputs": [
        {
          "name": "",
          "type": "uint256"
        }
      ],
      "payable": false,
      "stateMutability": "view",
      "type": "function",
      "signature": "0x10800d11"
    },
    {
      "constant": true,
      "inputs": [
        {
          "name": "_user",
          "type": "address"
        }
      ],
      "name": "getLoansByUser",
      "outputs": [
        {
          "name": "",
          "type": "uint256[]"
        }
      ],
      "payable": false,
      "stateMutability": "view",
      "type": "function",
      "signature": "0x3e842090"
    }
  ],
  "bytecode": "0x608060405234801561001057600080fd5b5061386e806100206000396000f3fe608060405260043610610128576000357c0100000000000000000000000000000000000000000000000000000000900463ffffffff1680630f7df7271461012d5780630fc213171461015657806310800d111461019357806323351f81146101be57806327e9b1a0146101e757806328db29cb146102125780632fb1df851461024f578063365b98b214610278578063390948a2146102b75780633e842090146102e05780635ec7616b1461031d578063679224821461035c578063792ad555146103995780637a646492146103d7578063a6166cb614610400578063aa3b686714610429578063ae7f7cb714610466578063b91fc50a1461048f578063c95669a5146104cc578063cf16fd0b146104f7578063d37c2a7a14610534578063e1ec3c6814610571575b600080fd5b34801561013957600080fd5b50610154600480360361014f9190810190612ced565b6105b4565b005b34801561016257600080fd5b5061017d60048036036101789190810190612dd8565b610836565b60405161018a91906133ea565b60405180910390f35b34801561019f57600080fd5b506101a86108b3565b6040516101b591906135b5565b60405180910390f35b3480156101ca57600080fd5b506101e560048036036101e09190810190612e3d565b6108c0565b005b3480156101f357600080fd5b506101fc610b16565b60405161020991906135b5565b60405180910390f35b34801561021e57600080fd5b5061023960048036036102349190810190612e01565b610b23565b60405161024691906135b5565b60405180910390f35b34801561025b57600080fd5b5061027660048036036102719190810190612dd8565b610b8b565b005b34801561028457600080fd5b5061029f600480360361029a9190810190612dd8565b610cf6565b6040516102ae9392919061342e565b60405180910390f35b3480156102c357600080fd5b506102de60048036036102d99190810190612ced565b610e7f565b005b3480156102ec57600080fd5b5061030760048036036103029190810190612cc4565b6110af565b60405161031491906133ea565b60405180910390f35b34801561032957600080fd5b50610344600480360361033f9190810190612dd8565b61131d565b604051610353939291906135d0565b60405180910390f35b34801561036857600080fd5b50610383600480360361037e9190810190612cc4565b6114e5565b6040516103909190613593565b60405180910390f35b3480156103a557600080fd5b506103c060048036036103bb9190810190612dd8565b6116d9565b6040516103ce929190613398565b60405180910390f35b3480156103e357600080fd5b506103fe60048036036103f99190810190612ed0565b6117c8565b005b34801561040c57600080fd5b5061042760048036036104229190810190612ced565b6118ea565b005b34801561043557600080fd5b50610450600480360361044b9190810190612cc4565b611c7a565b60405161045d91906135b5565b60405180910390f35b34801561047257600080fd5b5061048d60048036036104889190810190612d59565b611cc3565b005b34801561049b57600080fd5b506104b660048036036104b19190810190612dd8565b612054565b6040516104c3919061337d565b60405180910390f35b3480156104d857600080fd5b506104e1612091565b6040516104ee91906135b5565b60405180910390f35b34801561050357600080fd5b5061051e60048036036105199190810190612dd8565b612097565b60405161052b91906133c8565b60405180910390f35b34801561054057600080fd5b5061055b60048036036105569190810190612e01565b612139565b60405161056891906135b5565b60405180910390f35b34801561057d57600080fd5b5061059860048036036105939190810190612dd8565b612526565b6040516105ab9796959493929190613615565b60405180910390f35b33600560008054815260200190815260200160002060006101000a81548173ffffffffffffffffffffffffffffffffffffffff021916908373ffffffffffffffffffffffffffffffffffffffff160217905550600660003373ffffffffffffffffffffffffffffffffffffffff1673ffffffffffffffffffffffffffffffffffffffff1681526020019081526020016000206000815480929190600101919050555061065e612774565b600054816000018181525050828160200181905250600081604001818152505033816060019073ffffffffffffffffffffffffffffffffffffffff16908173ffffffffffffffffffffffffffffffffffffffff1681525050818160800181905250428160a00181815250506001819080600181540180825580915050906001820390600052602060002090600b02016000909192909190915060008201518160000155602082015181600101908051906020019061071d9291906127e1565b506040820151816002015560608201518160030160006101000a81548173ffffffffffffffffffffffffffffffffffffffff021916908373ffffffffffffffffffffffffffffffffffffffff160217905550608082015181600401908051906020019061078b9291906127e1565b5060a0820151816005015560c08201518160070190805190602001906107b2929190612861565b5060e08201518160080190805190602001906107cf9291906128ae565b506101008201518160090190805190602001906107ed929190612954565b5061012082015181600a0160006101000a81548160ff021916908360ff16021790555050505061081f60005433612139565b506000808154809291906001019190505550505050565b60608060018381548110151561084857fe5b90600052602060002090600b02016007018054806020026020016040519081016040528092919081815260200182805480156108a357602002820191906000526020600020905b81548152602001906001019080831161088f575b5050505050905080915050919050565b6000600280549050905090565b8360006001828154811015156108d257fe5b90600052602060002090600b020160060160003373ffffffffffffffffffffffffffffffffffffffff1673ffffffffffffffffffffffffffffffffffffffff1681526020019081526020016000205414158061098c57503373ffffffffffffffffffffffffffffffffffffffff166005600083815260200190815260200160002060009054906101000a900473ffffffffffffffffffffffffffffffffffffffff1673ffffffffffffffffffffffffffffffffffffffff16145b15156109cd576040517f08c379a00000000000000000000000000000000000000000000000000000000081526004016109c490613573565b60405180910390fd5b836001868154811015156109dd57fe5b90600052602060002090600b02016001019080519060200190610a019291906129de565b5082600186815481101515610a1257fe5b90600052602060002090600b02016004019080519060200190610a369291906129de565b506000600186815481101515610a4857fe5b90600052602060002090600b020160060160003373ffffffffffffffffffffffffffffffffffffffff1673ffffffffffffffffffffffffffffffffffffffff16815260200190815260200160002054905082600187815481101515610aa957fe5b90600052602060002090600b020160070182815481101515610ac757fe5b9060005260206000200181905550600186815481101515610ae457fe5b90600052602060002090600b020160020160008154809291906001019190505550610b0e866126d4565b505050505050565b6000600180549050905090565b6000600183815481101515610b3457fe5b90600052602060002090600b020160060160008373ffffffffffffffffffffffffffffffffffffffff1673ffffffffffffffffffffffffffffffffffffffff16815260200190815260200160002054905092915050565b806005600082815260200190815260200160002060009054906101000a900473ffffffffffffffffffffffffffffffffffffffff1673ffffffffffffffffffffffffffffffffffffffff163373ffffffffffffffffffffffffffffffffffffffff16141515610c2f576040517f08c379a0000000000000000000000000000000000000000000000000000000008152600401610c2690613553565b60405180910390fd5b600182815481101515610c3e57fe5b90600052602060002090600b0201600080820160009055600182016000610c659190612a5e565b60028201600090556003820160006101000a81549073ffffffffffffffffffffffffffffffffffffffff0219169055600482016000610ca49190612a5e565b6005820160009055600782016000610cbc9190612aa6565b600882016000610ccc9190612ac7565b600982016000610cdc9190612aef565b600a820160006101000a81549060ff021916905550505050565b600281815481101515610d0557fe5b9060005260206000209060030201600091509050806000018054600181600116156101000203166002900480601f016020809104026020016040519081016040528092919081815260200182805460018160011615610100020316600290048015610db15780601f10610d8657610100808354040283529160200191610db1565b820191906000526020600020905b815481529060010190602001808311610d9457829003601f168201915b505050505090806001018054600181600116156101000203166002900480601f016020809104026020016040519081016040528092919081815260200182805460018160011615610100020316600290048015610e4f5780601f10610e2457610100808354040283529160200191610e4f565b820191906000526020600020905b815481529060010190602001808311610e3257829003601f168201915b5050505050908060020160009054906101000a900473ffffffffffffffffffffffffffffffffffffffff16905083565b604051602001610e8e90613513565b6040516020818303038152906040528051906020012081604051602001610eb5919061340c565b604051602081830303815290604052805190602001201480610f205750604051602001610ee1906134d3565b6040516020818303038152906040528051906020012081604051602001610f08919061340c565b60405160208183030381529060405280519060200120145b1515610f61576040517f08c379a0000000000000000000000000000000000000000000000000000000008152600401610f5890613493565b60405180910390fd5b80600360003373ffffffffffffffffffffffffffffffffffffffff1673ffffffffffffffffffffffffffffffffffffffff1681526020019081526020016000206001019080519060200190610fb79291906129de565b5081600360003373ffffffffffffffffffffffffffffffffffffffff1673ffffffffffffffffffffffffffffffffffffffff168152602001908152602001600020600001908051906020019061100e9291906129de565b50600080600090505b6002805490508110156110a9573373ffffffffffffffffffffffffffffffffffffffff1660028281548110151561104a57fe5b906000526020600020906003020160020160009054906101000a900473ffffffffffffffffffffffffffffffffffffffff1673ffffffffffffffffffffffffffffffffffffffff16141561109c578091505b8080600101915050611017565b50505050565b606080600660008473ffffffffffffffffffffffffffffffffffffffff1673ffffffffffffffffffffffffffffffffffffffff168152602001908152602001600020546040519080825280602002602001820160405280156111205781602001602082028038833980820191505090505b509050600080905060008090505b600180549050811015611312578473ffffffffffffffffffffffffffffffffffffffff166005600083815260200190815260200160002060009054906101000a900473ffffffffffffffffffffffffffffffffffffffff1673ffffffffffffffffffffffffffffffffffffffff1614156111cc578083838151811015156111b157fe5b90602001906020020181815250508180600101925050611305565b60606001828154811015156111dd57fe5b90600052602060002090600b020160090180548060200260200160405190810160405280929190818152602001828054801561126e57602002820191906000526020600020905b8160009054906101000a900473ffffffffffffffffffffffffffffffffffffffff1673ffffffffffffffffffffffffffffffffffffffff1681526020019060010190808311611224575b5050505050905060008090505b8151811015611302578673ffffffffffffffffffffffffffffffffffffffff1682828151811015156112a957fe5b9060200190602002015173ffffffffffffffffffffffffffffffffffffffff1614156112f5578285858151811015156112de57fe5b906020019060200201818152505083806001019450505b808060010191505061127b565b50505b808060010191505061112e565b508192505050919050565b600060608060008410158015611334575060005484105b151561133f57600080fd5b60018481548110151561134e57fe5b90600052602060002090600b02016000015460018581548110151561136f57fe5b90600052602060002090600b020160010160018681548110151561138f57fe5b90600052602060002090600b0201600401818054600181600116156101000203166002900480601f0160208091040260200160405190810160405280929190818152602001828054600181600116156101000203166002900480156114355780601f1061140a57610100808354040283529160200191611435565b820191906000526020600020905b81548152906001019060200180831161141857829003601f168201915b50505050509150808054600181600116156101000203166002900480601f0160208091040260200160405190810160405280929190818152602001828054600181600116156101000203166002900480156114d15780601f106114a6576101008083540402835291602001916114d1565b820191906000526020600020905b8154815290600101906020018083116114b457829003601f168201915b505050505090509250925092509193909250565b6114ed612b10565b600360008373ffffffffffffffffffffffffffffffffffffffff1673ffffffffffffffffffffffffffffffffffffffff16815260200190815260200160002060606040519081016040529081600082018054600181600116156101000203166002900480601f0160208091040260200160405190810160405280929190818152602001828054600181600116156101000203166002900480156115d15780601f106115a6576101008083540402835291602001916115d1565b820191906000526020600020905b8154815290600101906020018083116115b457829003601f168201915b50505050508152602001600182018054600181600116156101000203166002900480601f0160208091040260200160405190810160405280929190818152602001828054600181600116156101000203166002900480156116735780601f1061164857610100808354040283529160200191611673565b820191906000526020600020905b81548152906001019060200180831161165657829003601f168201915b505050505081526020016002820160009054906101000a900473ffffffffffffffffffffffffffffffffffffffff1673ffffffffffffffffffffffffffffffffffffffff1673ffffffffffffffffffffffffffffffffffffffff16815250509050919050565b6060600060606001848154811015156116ee57fe5b90600052602060002090600b020160090180548060200260200160405190810160405280929190818152602001828054801561177f57602002820191906000526020600020905b8160009054906101000a900473ffffffffffffffffffffffffffffffffffffffff1673ffffffffffffffffffffffffffffffffffffffff1681526020019060010190808311611735575b50505050509050600060018581548110151561179757fe5b90600052602060002090600b0201600a0160009054906101000a900460ff1660ff1690508181935093505050915091565b60006001838154811015156117d957fe5b90600052602060002090600b020160060160003373ffffffffffffffffffffffffffffffffffffffff1673ffffffffffffffffffffffffffffffffffffffff1681526020019081526020016000205490508160018481548110151561183a57fe5b90600052602060002090600b02016002015414151561188e576040517f08c379a0000000000000000000000000000000000000000000000000000000008152600401611885906134f3565b60405180910390fd5b6001808481548110151561189e57fe5b90600052602060002090600b0201600801828154811015156118bc57fe5b90600052602060002090602091828204019190066101000a81548160ff021916908315150217905550505050565b60008251111515611930576040517f08c379a000000000000000000000000000000000000000000000000000000000815260040161192790613473565b60405180910390fd5b60405160200161193f90613513565b6040516020818303038152906040528051906020012081604051602001611966919061340c565b6040516020818303038152906040528051906020012014806119d15750604051602001611992906134d3565b60405160208183030381529060405280519060200120816040516020016119b9919061340c565b60405160208183030381529060405280519060200120145b1515611a12576040517f08c379a0000000000000000000000000000000000000000000000000000000008152600401611a0990613493565b60405180910390fd5b6000600360003373ffffffffffffffffffffffffffffffffffffffff1673ffffffffffffffffffffffffffffffffffffffff168152602001908152602001600020600001805460018160011615610100020316600290049050141515611aad576040517f08c379a0000000000000000000000000000000000000000000000000000000008152600401611aa490613533565b60405180910390fd5b611ab5612b10565b82816000018190525081816020018190525033816040019073ffffffffffffffffffffffffffffffffffffffff16908173ffffffffffffffffffffffffffffffffffffffff1681525050600281908060018154018082558091505090600182039060005260206000209060030201600090919290919091506000820151816000019080519060200190611b499291906127e1565b506020820151816001019080519060200190611b669291906127e1565b5060408201518160020160006101000a81548173ffffffffffffffffffffffffffffffffffffffff021916908373ffffffffffffffffffffffffffffffffffffffff16021790555050505080600360003373ffffffffffffffffffffffffffffffffffffffff1673ffffffffffffffffffffffffffffffffffffffff1681526020019081526020016000206000820151816000019080519060200190611c0d9291906127e1565b506020820151816001019080519060200190611c2a9291906127e1565b5060408201518160020160006101000a81548173ffffffffffffffffffffffffffffffffffffffff021916908373ffffffffffffffffffffffffffffffffffffffff160217905550905050505050565b6000600660008373ffffffffffffffffffffffffffffffffffffffff1673ffffffffffffffffffffffffffffffffffffffff168152602001908152602001600020549050919050565b60008351111515611d09576040517f08c379a0000000000000000000000000000000000000000000000000000000008152600401611d0090613473565b60405180910390fd5b604051602001611d1890613513565b6040516020818303038152906040528051906020012082604051602001611d3f919061340c565b604051602081830303815290604052805190602001201480611daa5750604051602001611d6b906134d3565b6040516020818303038152906040528051906020012082604051602001611d92919061340c565b60405160208183030381529060405280519060200120145b1515611deb576040517f08c379a0000000000000000000000000000000000000000000000000000000008152600401611de290613493565b60405180910390fd5b6000600360008373ffffffffffffffffffffffffffffffffffffffff1673ffffffffffffffffffffffffffffffffffffffff168152602001908152602001600020600001805460018160011615610100020316600290049050141515611e86576040517f08c379a0000000000000000000000000000000000000000000000000000000008152600401611e7d90613533565b60405180910390fd5b611e8e612b10565b83816000018190525082816020018190525081816040019073ffffffffffffffffffffffffffffffffffffffff16908173ffffffffffffffffffffffffffffffffffffffff1681525050600281908060018154018082558091505090600182039060005260206000209060030201600090919290919091506000820151816000019080519060200190611f229291906127e1565b506020820151816001019080519060200190611f3f9291906127e1565b5060408201518160020160006101000a81548173ffffffffffffffffffffffffffffffffffffffff021916908373ffffffffffffffffffffffffffffffffffffffff16021790555050505080600360008473ffffffffffffffffffffffffffffffffffffffff1673ffffffffffffffffffffffffffffffffffffffff1681526020019081526020016000206000820151816000019080519060200190611fe69291906127e1565b5060208201518160010190805190602001906120039291906127e1565b5060408201518160020160006101000a81548173ffffffffffffffffffffffffffffffffffffffff021916908373ffffffffffffffffffffffffffffffffffffffff16021790555090505050505050565b60006005600083815260200190815260200160002060009054906101000a900473ffffffffffffffffffffffffffffffffffffffff169050919050565b60005481565b6060806001838154811015156120a957fe5b90600052602060002090600b020160080180548060200260200160405190810160405280929190818152602001828054801561212957602002820191906000526020600020906000905b82829054906101000a900460ff161515815260200190600101906020826000010492830192600103820291508084116120f35790505b5050505050905080915050919050565b6000826005600082815260200190815260200160002060009054906101000a900473ffffffffffffffffffffffffffffffffffffffff1673ffffffffffffffffffffffffffffffffffffffff163373ffffffffffffffffffffffffffffffffffffffff161415156121df576040517f08c379a00000000000000000000000000000000000000000000000000000000081526004016121d690613553565b60405180910390fd5b600073ffffffffffffffffffffffffffffffffffffffff168373ffffffffffffffffffffffffffffffffffffffff161415151561221b57600080fd5b60001515600460008573ffffffffffffffffffffffffffffffffffffffff1673ffffffffffffffffffffffffffffffffffffffff168152602001908152602001600020600086815260200190815260200160002060009054906101000a900460ff1615151415156122c1576040517f08c379a00000000000000000000000000000000000000000000000000000000081526004016122b8906134b3565b60405180910390fd5b6001600460008573ffffffffffffffffffffffffffffffffffffffff1673ffffffffffffffffffffffffffffffffffffffff168152602001908152602001600020600086815260200190815260200160002060006101000a81548160ff021916908315150217905550600660008473ffffffffffffffffffffffffffffffffffffffff1673ffffffffffffffffffffffffffffffffffffffff16815260200190815260200160002060008154809291906001019190505550600060018581548110151561238a57fe5b90600052602060002090600b0201600a01600081819054906101000a900460ff168092919060010191906101000a81548160ff021916908360ff16021790555060ff169050806001868154811015156123df57fe5b90600052602060002090600b020160060160008673ffffffffffffffffffffffffffffffffffffffff1673ffffffffffffffffffffffffffffffffffffffff1681526020019081526020016000208190555060018581548110151561244057fe5b90600052602060002090600b02016009018490806001815401808255809150509060018203906000526020600020016000909192909190916101000a81548173ffffffffffffffffffffffffffffffffffffffff021916908373ffffffffffffffffffffffffffffffffffffffff160217905550506001858154811015156124c457fe5b90600052602060002090600b020160080180548091906001016124e79190612b48565b506001858154811015156124f757fe5b90600052602060002090600b0201600701805480919060010161251a9190612b82565b50809250505092915050565b60018181548110151561253557fe5b90600052602060002090600b0201600091509050806000015490806001018054600181600116156101000203166002900480601f0160208091040260200160405190810160405280929190818152602001828054600181600116156101000203166002900480156125e75780601f106125bc576101008083540402835291602001916125e7565b820191906000526020600020905b8154815290600101906020018083116125ca57829003601f168201915b5050505050908060020154908060030160009054906101000a900473ffffffffffffffffffffffffffffffffffffffff1690806004018054600181600116156101000203166002900480601f0160208091040260200160405190810160405280929190818152602001828054600181600116156101000203166002900480156126b15780601f10612686576101008083540402835291602001916126b1565b820191906000526020600020905b81548152906001019060200180831161269457829003601f168201915b50505050509080600501549080600a0160009054906101000a900460ff16905087565b60006001828154811015156126e557fe5b90600052602060002090600b020160080180549050905060008090505b8181101561276f57600060018481548110151561271b57fe5b90600052602060002090600b02016008018281548110151561273957fe5b90600052602060002090602091828204019190066101000a81548160ff0219169083151502179055508080600101915050612702565b505050565b61014060405190810160405280600081526020016060815260200160008152602001600073ffffffffffffffffffffffffffffffffffffffff1681526020016060815260200160008152602001606081526020016060815260200160608152602001600060ff1681525090565b828054600181600116156101000203166002900490600052602060002090601f016020900481019282601f1061282257805160ff1916838001178555612850565b82800160010185558215612850579182015b8281111561284f578251825591602001919060010190612834565b5b50905061285d9190612bae565b5090565b82805482825590600052602060002090810192821561289d579160200282015b8281111561289c578251825591602001919060010190612881565b5b5090506128aa9190612bae565b5090565b82805482825590600052602060002090601f016020900481019282156129435791602002820160005b8382111561291457835183826101000a81548160ff02191690831515021790555092602001926001016020816000010492830192600103026128d7565b80156129415782816101000a81549060ff0219169055600101602081600001049283019260010302612914565b505b5090506129509190612bd3565b5090565b8280548282559060005260206000209081019282156129cd579160200282015b828111156129cc5782518260006101000a81548173ffffffffffffffffffffffffffffffffffffffff021916908373ffffffffffffffffffffffffffffffffffffffff16021790555091602001919060010190612974565b5b5090506129da9190612c03565b5090565b828054600181600116156101000203166002900490600052602060002090601f016020900481019282601f10612a1f57805160ff1916838001178555612a4d565b82800160010185558215612a4d579182015b82811115612a4c578251825591602001919060010190612a31565b5b509050612a5a9190612bae565b5090565b50805460018160011615610100020316600290046000825580601f10612a845750612aa3565b601f016020900490600052602060002090810190612aa29190612bae565b5b50565b5080546000825590600052602060002090810190612ac49190612bae565b50565b50805460008255601f016020900490600052602060002090810190612aec9190612bae565b50565b5080546000825590600052602060002090810190612b0d9190612bae565b50565b6060604051908101604052806060815260200160608152602001600073ffffffffffffffffffffffffffffffffffffffff1681525090565b815481835581811115612b7d57601f016020900481601f01602090048360005260206000209182019101612b7c9190612bae565b5b505050565b815481835581811115612ba957818360005260206000209182019101612ba89190612bae565b5b505050565b612bd091905b80821115612bcc576000816000905550600101612bb4565b5090565b90565b612c0091905b80821115612bfc57600081816101000a81549060ff021916905550600101612bd9565b5090565b90565b612c4391905b80821115612c3f57600081816101000a81549073ffffffffffffffffffffffffffffffffffffffff021916905550600101612c09565b5090565b90565b6000612c5282356137c5565b905092915050565b600082601f8301121515612c6d57600080fd5b8135612c80612c7b826136bf565b613692565b91508082526020830160208301858383011115612c9c57600080fd5b612ca78382846137e1565b50505092915050565b6000612cbc82356137d7565b905092915050565b600060208284031215612cd657600080fd5b6000612ce484828501612c46565b91505092915050565b60008060408385031215612d0057600080fd5b600083013567ffffffffffffffff811115612d1a57600080fd5b612d2685828601612c5a565b925050602083013567ffffffffffffffff811115612d4357600080fd5b612d4f85828601612c5a565b9150509250929050565b600080600060608486031215612d6e57600080fd5b600084013567ffffffffffffffff811115612d8857600080fd5b612d9486828701612c5a565b935050602084013567ffffffffffffffff811115612db157600080fd5b612dbd86828701612c5a565b9250506040612dce86828701612c46565b9150509250925092565b600060208284031215612dea57600080fd5b6000612df884828501612cb0565b91505092915050565b60008060408385031215612e1457600080fd5b6000612e2285828601612cb0565b9250506020612e3385828601612c46565b9150509250929050565b60008060008060808587031215612e5357600080fd5b6000612e6187828801612cb0565b945050602085013567ffffffffffffffff811115612e7e57600080fd5b612e8a87828801612c5a565b935050604085013567ffffffffffffffff811115612ea757600080fd5b612eb387828801612c5a565b9250506060612ec487828801612cb0565b91505092959194509250565b60008060408385031215612ee357600080fd5b6000612ef185828601612cb0565b9250506020612f0285828601612cb0565b9150509250929050565b612f1581613770565b82525050565b6000612f2682613712565b808452602084019350612f38836136eb565b60005b82811015612f6a57612f4e868351612f0c565b612f5782613749565b9150602086019550600181019050612f3b565b50849250505092915050565b6000612f818261371d565b808452602084019350612f93836136f8565b60005b82811015612fc557612fa986835161302c565b612fb282613756565b9150602086019550600181019050612f96565b50849250505092915050565b6000612fdc82613728565b808452602084019350612fee83613705565b60005b828110156130205761300486835161335f565b61300d82613763565b9150602086019550600181019050612ff1565b50849250505092915050565b61303581613782565b82525050565b60006130468261373e565b80845261305a8160208601602086016137f0565b61306381613823565b602085010191505092915050565b600061307c82613733565b8084526130908160208601602086016137f0565b61309981613823565b602085010191505092915050565b6000601682527f4e616d65206d75737420626520737065636966696564000000000000000000006020830152604082019050919050565b6000602582527f526f6c65206d757374206d6174636820276c656e64657227206f722027626f7260208301527f726f7765720000000000000000000000000000000000000000000000000000006040830152606082019050919050565b6000601b82527f5573657220616c72656164792065786973747320696e206c6f616e00000000006020830152604082019050919050565b6000600882527f626f72726f7765720000000000000000000000000000000000000000000000006020830152604082019050919050565b6000602182527f56657273696f6e73206f6620746865206c6f616e20646f206e6f74206d61746360208301527f68000000000000000000000000000000000000000000000000000000000000006040830152606082019050919050565b6000600682527f6c656e64657200000000000000000000000000000000000000000000000000006020830152604082019050919050565b6000601f82527f5573657220686173206265656e2072656769737465726564206265666f7265006020830152604082019050919050565b6000603982527f4f6e6c7920746865206f776e6572206f6620746865206c6f616e20686173207060208301527f65726d697373696f6e20666f72207468697320616374696f6e000000000000006040830152606082019050919050565b6000601d82527f596f7520617265206e6f742070617274206f662074686973206c6f616e0000006020830152604082019050919050565b600060608301600083015184820360008601526133258282613071565b9150506020830151848203602086015261333f8282613071565b91505060408301516133546040860182612f0c565b508091505092915050565b613368816137ae565b82525050565b613377816137b8565b82525050565b60006020820190506133926000830184612f0c565b92915050565b600060408201905081810360008301526133b28185612f1b565b90506133c1602083018461335f565b9392505050565b600060208201905081810360008301526133e28184612f76565b905092915050565b600060208201905081810360008301526134048184612fd1565b905092915050565b60006020820190508181036000830152613426818461303b565b905092915050565b600060608201905081810360008301526134488186613071565b9050818103602083015261345c8185613071565b905061346b6040830184612f0c565b949350505050565b6000602082019050818103600083015261348c816130a7565b9050919050565b600060208201905081810360008301526134ac816130de565b9050919050565b600060208201905081810360008301526134cc8161313b565b9050919050565b600060208201905081810360008301526134ec81613172565b9050919050565b6000602082019050818103600083015261350c816131a9565b9050919050565b6000602082019050818103600083015261352c81613206565b9050919050565b6000602082019050818103600083015261354c8161323d565b9050919050565b6000602082019050818103600083015261356c81613274565b9050919050565b6000602082019050818103600083015261358c816132d1565b9050919050565b600060208201905081810360008301526135ad8184613308565b905092915050565b60006020820190506135ca600083018461335f565b92915050565b60006060820190506135e5600083018661335f565b81810360208301526135f7818561303b565b9050818103604083015261360b818461303b565b9050949350505050565b600060e08201905061362a600083018a61335f565b818103602083015261363c8189613071565b905061364b604083018861335f565b6136586060830187612f0c565b818103608083015261366a8186613071565b905061367960a083018561335f565b61368660c083018461336e565b98975050505050505050565b6000604051905081810181811067ffffffffffffffff821117156136b557600080fd5b8060405250919050565b600067ffffffffffffffff8211156136d657600080fd5b601f19601f8301169050602081019050919050565b6000602082019050919050565b6000602082019050919050565b6000602082019050919050565b600081519050919050565b600081519050919050565b600081519050919050565b600081519050919050565b600081519050919050565b6000602082019050919050565b6000602082019050919050565b6000602082019050919050565b600061377b8261378e565b9050919050565b60008115159050919050565b600073ffffffffffffffffffffffffffffffffffffffff82169050919050565b6000819050919050565b600060ff82169050919050565b60006137d08261378e565b9050919050565b6000819050919050565b82818337600083830152505050565b60005b8381101561380e5780820151818401526020810190506137f3565b8381111561381d576000848401525b50505050565b6000601f19601f830116905091905056fea265627a7a723058203717d527b531eaddf7dcf3e827ad5ae5b0d05daac791c9485a0db4c28bd1377d6c6578706572696d656e74616cf50037",
  "source": "pragma solidity >=0.4.22 <0.6.0;\r\n\r\n// necessary because some functions return structs\r\npragma experimental ABIEncoderV2;\r\n\r\n/*\r\nContract for ANZ Digital Disruption Blockchain Project\r\nAuthor: Karan Goda\r\n*/\r\n\r\ncontract SynLoanData {\r\n\r\n    uint public loanId;     // A unique number that increments with every newly created loan\r\n\r\n    LoanData[] public loans;\r\n\r\n    struct LoanData {\r\n        uint id;                                // Loan ID\r\n        string name;                            // Name of  the Loan\r\n        uint revisionNumber;                    // Shall increment with every update to the loan\r\n        address registeringParty;               // Party who registered the loan. Possible unnecessary because of mapping  loanToRegistrar\r\n        string dataString;                      // formerly \"purpose\", now general data string\r\n        uint regTime;                           // UNIX Timestamp\r\n        mapping (address => uint) userToId;     // Gets local user id belonging (mapped to) an address in loan\r\n        uint[] loanAmounts;                     // corresponding to participants\r\n        bool[] approvalStatus;                  // Array to store approvals\r\n        address[] userList;\r\n        uint8 numOfUsers;\r\n    }\r\n\r\n\r\n/*\r\nStruct user defines key data of participants such as banks and businesses\r\n*/\r\n    struct userData {\r\n        string name;\r\n        string role;        // Borrower or Lender\r\n        address account;\r\n    }\r\n\r\n    // Public array of all participants in dApp/Smart Contract (maybe unnecessary)\r\n    userData[] public users;\r\n\r\n    // Dictionary to find account data\r\n    mapping (address => userData) addressToUserData;\r\n\r\n    // Necessary to require user can only added to a loan once\r\n    mapping (address => mapping (uint => bool)) addressAssociated;\r\n\r\n    // Map a loan id to an account address of registrating user\r\n    mapping (uint => address) loanToRegistrar;\r\n\r\n    // counts the amount of loans belonging to the address\r\n    mapping (address => uint) userLoanCount;\r\n\r\n\r\n    /*\r\n    Modifier to check that sender is the registrar of the loan\r\n    */\r\n    modifier onlyRegistrar(uint _loanId) {\r\n      require(msg.sender == loanToRegistrar[_loanId], \"Only the owner of the loan has permission for this action\");\r\n      _;\r\n    }\r\n\r\n    /*\r\n    Modifier to check if sender is participant of a loan\r\n    */\r\n    modifier onlyParticipant (uint _loanId) {\r\n      require(loans[_loanId].userToId[msg.sender] != 0 || loanToRegistrar[_loanId] == msg.sender, \"You are not part of this loan\");\r\n      _;\r\n    }\r\n\r\n\r\n    function createLoan (string memory _name, string memory _dataString) public {\r\n\r\n        loanToRegistrar[loanId] = msg.sender;   // Store the address of the user in mapping\r\n        userLoanCount[msg.sender]++;            // necessary for array to count loans registered by user\r\n\r\n        // create LoanData instance in memory, later populate array\r\n        LoanData memory ln;\r\n        ln.id = loanId;\r\n        ln.name = _name;\r\n        ln.revisionNumber = 0;\r\n        ln.registeringParty = msg.sender;\r\n        ln.dataString = _dataString;\r\n        ln.regTime = now;\r\n\r\n        loans.push(ln);\r\n\r\n        // Add loan creator himself/herself\r\n        addUserToLoan(loanId, msg.sender);\r\n        loanId++; // Increment unique number\r\n    }\r\n    \r\n    // A person can only see their own loans' names by entering loan id\r\n    function seeLoan (uint loanNum) view public returns (uint id, string memory name, string memory purpose) {\r\n        require(loanNum >= 0 && loanNum < loanId);\r\n        return (loans[loanNum].id, loans[loanNum].name, loans[loanNum].dataString);\r\n    }\r\n\r\n\r\n    /*\r\n    Update Loan Data, increment version / revision number\r\n    Here, all the other data like loan amount, start date and other conditions shall be filled\r\n    */\r\n    function updateLoan(uint _loanId, string memory _name, string memory _dataString, uint _loanAmount)\r\n        public onlyParticipant(_loanId)\r\n    {\r\n        loans[_loanId].name = _name;\r\n        loans[_loanId].dataString = _dataString;\r\n\r\n        // Save specified loan amount in array corresponding to user index\r\n        uint userId = loans[_loanId].userToId[msg.sender];\r\n        loans[_loanId].loanAmounts[userId] = _loanAmount;\r\n\r\n        loans[_loanId].revisionNumber++;\r\n        resetApprovals(_loanId);\r\n    }\r\n\r\n    /*\r\n    Functionality to delete loan\r\n    */\r\n    function deleteLoan(uint _id) public onlyRegistrar(_id) {\r\n        delete loans[_id];\r\n    }\r\n\r\n\r\n    /*\r\n    Approves Loan: each participant of Loan can give his approval\r\n    */\r\n    function approveLoan(uint _loanId, uint _revisionNumber) public  {\r\n        uint userId = loans[_loanId].userToId[msg.sender];\r\n        require(loans[_loanId].revisionNumber == _revisionNumber, \"Versions of the loan do not match\");\r\n        loans[_loanId].approvalStatus[userId] = true;\r\n    }\r\n\r\n    /*\r\n    Function to reset approvals called after loan has been updated\r\n    */\r\n    function resetApprovals(uint _loanId) internal {\r\n        uint n = loans[_loanId].approvalStatus.length;\r\n        for (uint i=0; i < n; i++) {\r\n            loans[_loanId].approvalStatus[i] = false;\r\n        }\r\n    }\r\n\r\n\r\n\r\n    /*\r\n    Function to add new users to a loan, checks if user has been added before\r\n    */\r\n    function addUserToLoan (uint _loanId, address _account) public onlyRegistrar(_loanId) returns (uint){\r\n\r\n        // The following three lines check that the zero-address cant be added and prohibit double registration\r\n        require(_account != address(0));\r\n        require(addressAssociated[_account][_loanId] == false, \"User already exists in loan\");\r\n        addressAssociated[_account][_loanId] = true;\r\n\r\n        userLoanCount[_account]++;\r\n        uint userNum = loans[_loanId].numOfUsers++;\r\n        // Adds user to mapping of loan (analog to incremented numOfUsers)\r\n        loans[_loanId].userToId[_account] = userNum;\r\n        // Pushes address to userList array (to retrieve all users, iterate)\r\n        loans[_loanId].userList.push(_account);\r\n\r\n        // Let size of arrays that correspond with users grow in size\r\n        loans[_loanId].approvalStatus.length++;\r\n        loans[_loanId].loanAmounts.length++;\r\n        return userNum;\r\n    }\r\n\r\n\r\n    /*\r\n    Self-Registration of a user account\r\n     */\r\n    function selfRegistration (string memory _name, string memory _role) public {\r\n\r\n        // Conditions to ensure no ghost users are registered\r\n        require(bytes (_name).length > 0, \"Name must be specified\");\r\n\r\n        require(keccak256(abi.encode(_role)) == keccak256(abi.encode(\"lender\")) || keccak256(abi.encode(_role)) == keccak256(abi.encode(\"borrower\")), \"Role must match 'lender' or 'borrower\");\r\n        require(bytes (addressToUserData[msg.sender].name).length == 0, \"User has been registered before\");\r\n\r\n\r\n        // Consider if populating array is necessary\r\n        userData memory u;\r\n        u.name = _name;\r\n        u.role = _role;\r\n        u.account = msg.sender;\r\n        users.push(u);\r\n\r\n        // Self-registration: Mapping ---- (-1??)\r\n        addressToUserData[msg.sender] = u;\r\n    }\r\n\r\n    /*\r\n    Registration of a user account by _anyone_ (public)\r\n     */\r\n    function userRegistration (string memory _name, string memory _role, address _account) public {\r\n\r\n\r\n        // Conditions to ensure no ghost users are registered\r\n        require(bytes (_name).length > 0, \"Name must be specified\");\r\n\r\n        require(keccak256(abi.encode(_role)) == keccak256(abi.encode(\"lender\")) || keccak256(abi.encode(_role)) == keccak256(abi.encode(\"borrower\")), \"Role must match 'lender' or 'borrower\");\r\n        require(bytes (addressToUserData[_account].name).length == 0, \"User has been registered before\");\r\n\r\n\r\n        // Consider if populating array is necessary\r\n        userData memory u;\r\n        u.name = _name;\r\n        u.role = _role;\r\n        u.account = _account;\r\n        users.push(u);\r\n\r\n        addressToUserData[_account] = u;\r\n    }\r\n\r\n    /*\r\n    Function to let users change their data after it has been created\r\n    */\r\n    function editUserData(string memory _name, string memory _role) public {\r\n\r\n        require(keccak256(abi.encode(_role)) == keccak256(abi.encode(\"lender\")) || keccak256(abi.encode(_role)) == keccak256(abi.encode(\"borrower\")), \"Role must match 'lender' or 'borrower\");\r\n        addressToUserData[msg.sender].role = _role;\r\n        addressToUserData[msg.sender].name = _name;\r\n        // Array update necessary\r\n        uint index;\r\n        // userData memory u;\r\n        for (uint i = 0; i < users.length; i++) {\r\n            if (users[i].account == msg.sender) {\r\n                index = i;\r\n            }\r\n        }\r\n\r\n    }\r\n\r\n\r\n    /*\r\n    Helper function to retrieve [mapping userLoanCount]\r\n    */\r\n    function getUserLoanCount(address _addr) public view returns(uint) {\r\n        return userLoanCount[_addr];\r\n    }\r\n\r\n    /*\r\n    Helper function to retrieve [mapping loanToRegistrar]\r\n    */\r\n    function getloanToRegistrar(uint _loanId) public view returns(address) {\r\n        return loanToRegistrar[_loanId];\r\n    }\r\n\r\n    /*\r\n    Helper function to retrieve UserId from mapping inside struct\r\n    */\r\n    function getUserToId(uint256 _loanId, address _address) public view returns (uint256) {\r\n        return loans[_loanId].userToId[_address];\r\n    }\r\n\r\n    /*\r\n    Helper function to retrieve data belonging to an address\r\n    */\r\n    function getUserDataByAddr(address _account) public view returns(userData memory) {\r\n        return addressToUserData[_account];\r\n    }\r\n\r\n    /*\r\n    Helper function to retrieve List of all registered Addresses in Loan\r\n    */\r\n    function getUsersInLoan (uint256 _loanId) public view returns (address[] memory, uint) {\r\n        address[] memory addrArr = loans[_loanId].userList;\r\n        uint userCount = loans[_loanId].numOfUsers;\r\n        return (addrArr, userCount);\r\n    }\r\n\r\n    /*\r\n    Helper function to retrieve approval status array\r\n    */\r\n    function getApprovalStatus(uint256 _loanId) public view returns (bool[] memory) {\r\n        bool[] memory array = loans[_loanId].approvalStatus; // approvalStatus is a bool array in a struct array\r\n        return array;\r\n    }\r\n\r\n    /*\r\n    Helper function to retrieve the loan amounts of the users from struct\r\n    */\r\n    function getLoanAmounts(uint256 _loanId) public view returns (uint[] memory) {\r\n        uint[] memory array = loans[_loanId].loanAmounts;\r\n        return array;\r\n    }\r\n\r\n    /*\r\n    Get the length of the loan array\r\n    */\r\n    function getArrLength() public view returns (uint256)\r\n    {\r\n        return (loans.length);\r\n    }\r\n\r\n    /*\r\n    Get the length of the user array\r\n    */\r\n    function getUserArrLength() public view returns (uint256)\r\n    {\r\n        return (users.length);\r\n    }\r\n\r\n    /*\r\n    The function should return an array with all the loans the user is involved in, disregarding any other permissioning like read-write requests\r\n    Important to log all the loans by the user\r\n    As of now, only the registrar mapping is applied, a loan belonging to multiple users cannot be created yet\r\n    Info: mapping (uint => address) loanToRegistrar;\r\n    */\r\n    function getLoansByUser(address _user) external view returns(uint[] memory) {\r\n        // Create a new array with as many entries as Loans belong to the user\r\n        uint[] memory result = new uint[](userLoanCount[_user]);\r\n        uint counter = 0;\r\n        // Iterate through loanToRegistrar mapping and check if equals address, then sum up\r\n        for (uint i = 0; i < loans.length; i++) {\r\n            if (loanToRegistrar[i] == _user) {\r\n                result[counter] = i;\r\n                counter++;\r\n            }\r\n            // Check if user is part of the loan but not registrar\r\n            else {\r\n                address[] memory _userArr = loans[i].userList;\r\n\r\n                for (uint c = 0; c < _userArr.length; c++ ) {\r\n                    if (_userArr[c] == _user) {\r\n                    result[counter] = i;\r\n                    counter++;\r\n                    }\r\n                }\r\n\r\n            }\r\n        }\r\n        return result;\r\n    }\r\n\r\n  }\r\n",
  "sourcePath": "/Users/kbgoda/Documents/Programming/Git_Repositories/ANZ-Syndicate-Loans/syndLoanDapp/contracts/SyndLoanANZ.sol",
  "compiler": {
    "name": "solc",
    "version": "0.5.0+commit.1d4f565a.Emscripten.clang"
  },
  "schemaVersion": "3.0.8",
  "updatedAt": "2019-05-05T00:25:57.931Z",
  "devdoc": {
    "methods": {}
  },
  "userdoc": {
    "methods": {}
  }
}